:100000000C946D000C948B080C9464080C9495006F
:100010000C9495000C9495000C9495000C94B208E7
:100020000C9495000C9495000C9495000C949500FC
:100030000C9495000C9495000C9495000C949500EC
:100040000C941A080C9495000C9495000C9495004F
:100050000C9495000C9495000C9495000C949500CC
:100060000C940E090C94950031343A34303A3539F9
:10007000004E6F76203133203230323500020000DE
:1000800000002300260029000000000800020100F3
:100090000003040700000000000000000000000052
:1000A000250028002B0000000000240027002A0063
:1000B000040404040404040402020202020203030E
:1000C0000303030301020408102040800102040816
:1000D00010200102040810202D0A11241FBECFEFAA
:1000E000D8E0DEBFCDBF22E0AAECB1E001C01D9296
:1000F000A83DB207E1F711E0A0E0B1E0EEEDF1E2DA
:1001000002C005900D92AA3CB107D9F710E0CDE6E8
:10011000D0E004C02197FE010E94AE0FCC36D1077B
:10012000C9F70E944D0A0C94ED100C94000008953C
:100130000895EAECF0E02491E6EBF0E08491882366
:1001400099F090E0880F991FFC01EA55FF4FA591A7
:10015000B491FC01E456FF4F859194918FB7F894C8
:10016000EC91E22BEC938FBF0895833081F028F45B
:10017000813099F08230A9F008958730A9F0883055
:10018000C9F08430B1F4809180008F7D03C08091EC
:1001900080008F7780938000089584B58F7784BD29
:1001A000089584B58F7DFBCF8091B0008F778093C9
:1001B000B00008958091B0008F7DF9CFCF93DF9389
:1001C000282F30E0F901E857FF4F8491F901EC53F3
:1001D000FF4FD491F901E055FF4FC491CC23A1F01A
:1001E00081110E94B500EC2FF0E0EE0FFF1FE258E6
:1001F000FF4FA591B491EC91ED2381E090E009F4DB
:1002000080E0DF91CF91089580E090E0FACF1F93D6
:10021000CF93DF93282F30E0F901E857FF4F849107
:10022000F901EC53FF4FD491F901E055FF4FC49110
:10023000CC23A9F0162F81110E94B500EC2FF0E01D
:10024000EE0FFF1FE456FF4FA591B4918FB7F894BE
:10025000EC91111108C0D095DE23DC938FBFDF91A4
:10026000CF911F910895DE2BF8CF3FB7F89480917E
:10027000400290914102A0914202B091430226B502
:10028000A89B05C02F3F19F00196A11DB11D3FBFCE
:10029000BA2FA92F982F8827BC01CD01620F711D9D
:1002A000811D911D42E0660F771F881F991F4A9597
:1002B000D1F708958F929F92AF92BF92CF92DF9223
:1002C000EF92FF924B015C010E9435016B017C01B2
:1002D0000E9435016C197D098E099F09683E7340A3
:1002E00081059105A8F321E0821A9108A108B108BF
:1002F00088EEC80E83E0D81EE11CF11C8114910425
:10030000A104B10429F7FF90EF90DF90CF90BF9048
:10031000AF909F908F9008952FB7F89460913C0212
:1003200070913D0280913E0290913F022FBF08954F
:100330000F931F930E948C010091CA011091CB0171
:100340002091CC013091CD01601B710B820B930B7E
:10035000693C71058105910518F081E080933602B2
:100360000E948C016093CA017093CB018093CC01F1
:100370009093CD011F910F9108950F931F930E94A9
:100380008C010091CE011091CF012091D0013091CC
:10039000D101601B710B820B930B693C71058105C8
:1003A000910518F081E0809328020E948C016093EF
:1003B000CE017093CF018093D0019093D1011F9112
:1003C0000F91089508959091040189130BC0EDE7F2
:1003D000F0E0E4919FEF90930401E13049F028F0C0
:1003E000E23061F060E00C94070110926E00FACFE9
:1003F00090916F009D7F90936F00F4CF909170006B
:100400009D7F9093700091E09093B0009091B10027
:10041000987F94609093B1001092B300E3CFAF92B5
:10042000BF92CF92DF92EF92FF920F931F93CF93E1
:10043000DF936C017B018B01040F151FEB015E0143
:10044000AE18BF08C017D10759F06991D601ED91D8
:10045000FC910190F081E02DC6010995892B79F777
:10046000C501DF91CF911F910F91FF90EF90DF9029
:10047000CF90BF90AF9008950895FC019081905364
:100480009A3008F090E0818180532AE0929F800D9D
:10049000112408952091F301260F3327331F2132B1
:1004A0003105ECF420919202FC0190E080E02430D0
:1004B00069F082E00895A091F3012191AC014D52C1
:1004C0005E4FA40FB52FB11D2C930196861798F39C
:1004D0008091F301680F6093F30180E0089581E05B
:1004E00008951092920281E08093910210926C0222
:1004F00061E082E10E94070161E083E10E9407015F
:10050000E9EBF0E080818E7F808380818D7F808326
:1005100088E48093B80085E48093BC00089510922D
:10052000490210924802109299021092BB020E9456
:10053000710287E990E0909347028093460288E930
:1005400090E090934502809344020895CF93DF9307
:1005500091E09093D2018823B9F0C091B800D09176
:10056000BA008091BC008A7B8093BC0060E082E18D
:100570000E94070160E083E10E9407010E9471026E
:10058000D093BA00C093B800DF91CF9108958F92B5
:100590009F92AF92BF92CF92DF92EF92FF920F9312
:1005A0001F93CF93DF93D091BB02D13208F0D7C015
:1005B000182FC091BA020E9435016B017C01809115
:1005C000920281116BC082E080939202109391029B
:1005D0008FEF8093900210928F02D0938E02AAE93F
:1005E000B2E0EEE6F2E080E0D81391C010926D0226
:1005F00080916D02CC0FC82BC0936D0280916C026C
:10060000813009F088C010926C020E9435016B01A4
:100610007C0180916D028093BB0080919402909147
:100620009502A0919602B0919702892B8A2B8B2B71
:10063000A1F00E9435010091940210919502209141
:100640009602309197026C197D098E099F09061751
:1006500017072807390708F442C08091BC0083FDC2
:10066000D8CF85EC8093BC000E9435016B017C01E2
:1006700080919202823009F450C0809190028F3FA5
:1006800009F46FC080919002803209F46CC08091AF
:100690009002803309F469C084E026C080919402FE
:1006A00090919502A0919602B0919702892B8A2B86
:1006B0008B2B09F484CF0E94350180909402909096
:1006C0009502A0909602B09097026C197D098E0950
:1006D0009F0986169706A806B90608F070CF809184
:1006E00093020E94A60285E0109299021092BB022A
:1006F00010929802DF91CF911F910F91FF90EF9090
:10070000DF90CF90BF90AF909F908F9008959D9174
:1007100091938F5F69CF85EEA5CF809194029091E0
:100720009502A0919602B0919702892B8A2B8B2B70
:1007300009F49ECF0E943501009194021091950218
:1007400020919602309197026C197D098E099F09BC
:10075000061717072807390708F08ACFC0CF81E0AE
:10076000C3CF80E0C1CF82E0BFCF83E0BDCF1F9376
:10077000CF93DF93EA01122FDC0111968D919C91AA
:10078000DC01ED91FC910280F381E02D0995C81701
:10079000D90729F4812F0E94C70291E0811190E0CE
:1007A000892FDF91CF911F910895CF93DF93EC01B3
:1007B0008B818823A1F0888191E0909398028093A7
:1007C000BA02109299021092BB0281E00E94C70205
:1007D00091E0811190E0892FDF91CF9108950E94DF
:1007E0008F0281E08B83CE010E94D503982F811167
:1007F000E2CFF1CF0895E091490280914802E817D5
:1008000030F4F0E0E65BFD4F808190E008958FEFDB
:100810009FEF089590914902809148022FEF3FEF9A
:10082000981748F4E92FF0E0E65BFD4F208130E0B7
:100830009F5F90934902C901089580914802909169
:100840004902891B990B0895CF92DF92EF92FF9294
:100850000F931F93CF93DF937C01CB018A012091EB
:100860009802222389F0EB016B01C40ED51ECC1532
:10087000DD0569F06991D701ED91FC910190F0815E
:10088000E02DC7010995F3CF642F0E944A02C801E9
:10089000DF91CF911F910F91FF90EF90DF90CF905C
:1008A0000895CF93DF931F92CDB7DEB76983209170
:1008B00098022223F9F02091BB02203258F021E067
:1008C00030E0FC013383228390E080E00F90DF91E1
:1008D000CF91089580919902E82FF0E0E656FD4F00
:1008E000998190838F5F809399028093BB0281E00E
:1008F00090E0ECCF61E0CE0101960E944A02F7CF72
:10090000FC01248131E0309398022093BA021092C6
:1009100099021092BB028385682B8CEB92E00E94B7
:10092000510481E00C94C70290E080E008950F9399
:100930001F93CF93DF93CDB7DEB728970FB6F89408
:10094000DEBF0FBECDBFDC018E010F5F1F4F86E003
:10095000F80111928A95E9F715963C9115972AE0CE
:10096000832F622F0E946C0F982F880F890F880F9A
:10097000830F8A8314963C911497832F0E946C0FE7
:10098000982F880F890F880F830F8B8313963C91C4
:100990001397832F0E946C0F982F880F890F880F51
:1009A000830F8C8312963C911297832F0E946C0FB9
:1009B000982F880F890F880F830F8E8311963C9193
:1009C0001197832F0E946C0F982F880F890F880F23
:1009D000830F8F833C91832F0E946C0F982F880F79
:1009E000890F880F830F888780916A0290916B022C
:1009F000FC01248135812830310580F0208131E0EF
:100A0000309398022093BA02109299021092BB027E
:100A100021E048E050E0B8010E94B70328960FB6E5
:100A2000F894DEBF0FBECDBFDF91CF911F910F9124
:100A300008952F923F924F925F926F927F928F9282
:100A40009F92AF92BF92CF92DF92EF92FF920F935D
:100A50001F93CF93DF935C011B016A01F12CE12C02
:100A6000D50114968D919C9186010E191F0980174E
:100A7000910708F48C01F501D0810E9435012B010A
:100A80003C0180919202811172C0C02F013208F0A6
:100A9000C0E2F1E0F093920221E0C601801B910BCD
:100AA000E816F90608F420E0209391028FEF809376
:100AB000900210928F028C0F80938E02A1E0A0937F
:100AC0006D0280916D02DD0FD82BD0936D02809165
:100AD0006C02813009F090C010926C020E943501C6
:100AE0002B013C0180916D028093BB0080919402A8
:100AF00090919502A0919602B0919702892B8A2B32
:100B00008B2BA1F00E943501209194023091950227
:100B100040919602509197026419750986099709C8
:100B2000261737074807590708F442C08091BC00D0
:100B300083FDD8CFB5ECB093BC000E9435012B01EA
:100B40003C0180919202813009F45AC080918F0259
:100B50008C1710F4C0918F02AEE6B2E0EAE4F2E046
:100B600080E08C1751F19D9191938F5FFACF809126
:100B7000940290919502A0919602B0919702892BD0
:100B80008A2B8B2B09F47DCF0E9435012091940292
:100B9000309195024091960250919702641975091F
:100BA00086099709261737074807590708F069CFBC
:100BB000809193020E94A602C0E010924902C09365
:100BC0004802C017110609F057C041018E0C9F1C46
:100BD000E401CE01881999098017910798F5D5018C
:100BE00011968D919C91DC01ED91FC910284F3852D
:100BF000E02D09958993EDCFE5EEE093BC009DCF04
:100C00008091940290919502A0919602B0919702E2
:100C1000892B8A2B8B2B09F494CF0E9435012091CC
:100C20009402309195024091960250919702641976
:100C3000750986099709261737074807590708F0E5
:100C400080CFB6CFE00EF11EEC14FD0408F408CFFF
:100C500081E0DF91CF911F910F91FF90EF90DF9096
:100C6000CF90BF90AF909F908F907F906F905F904C
:100C70004F903F902F90089580E0EBCFEF92FF923E
:100C80000F931F93CF93DF9300D000D000D01F921B
:100C9000CDB7DEB78C011982E0906A02F0906B024A
:100CA000D70114968D919C911597892BE9F08C9121
:100CB00091E0909398028093BA0210929902109258
:100CC000BB0220E041E050E0BE016F5F7F4FC701F3
:100CD0000E94B703882341F047E050E0BE016F5FF8
:100CE0007F4FC7010E941905E981EF77FA81FB80E8
:100CF0004D815E818F81282F30E094E035952795D6
:100D00009A95E1F7922F990F990F291B220F280F1F
:100D1000D8012C93852F90E024E0959587952A950E
:100D2000E1F7982F990F990F891B880F850F11965E
:100D30008C931197642F70E034E0759567953A9520
:100D4000E1F7862F880F880F681B660F640F1296D5
:100D50006C9312974F2D50E064E0559547956A9536
:100D6000E1F7842F880F880F481B440F4F0D13960F
:100D70004C9313972F2F30E074E0359527957A9593
:100D8000E1F7822F880F880F281B220F2F0F149650
:100D90002C9314978E2F90E0F4E095958795FA9513
:100DA000E1F7982F990F990F891B880F8E0F1596D1
:100DB0008C93C80127960FB6F894DEBF0FBECDBF47
:100DC000DF91CF911F910F91FF90EF9008950F93B6
:100DD0001F93CF938C01C62F0E9480046C2F6460F8
:100DE000C8010E9480046C2F6B7FC8010E948004A0
:100DF00083EC90E00197F1F7CF911F910F91089547
:100E00000F931F93CF93DF938C01D62FC42F607F56
:100E1000642B0E94E70680E1D89FB00111246C2B5F
:100E2000C801DF91CF911F910F910C94E70640E02C
:100E300061E088EC92E00E9400078BE39FE101975C
:100E4000F1F70895CF93DF93CDB7DEB728970FB6AC
:100E5000F894DEBF0FBECDBF98E0EBE0F1E0DE011D
:100E6000119601900D929A95E1F79091D002981702
:100E700008F48FEF90E0880F991F21E030E02C0FED
:100E80003D1F820F931FFC016081606840E088EC89
:100E900092E028960FB6F894DEBF0FBECDBFDF916B
:100EA000CF910C94000741E00E94000781E090E0A0
:100EB00008958F929F92AF92BF920F931F93CF93FB
:100EC000DF93CDB7DEB7A1970FB6F894DEBF0FBEA4
:100ED000CDBF19A2423008F44AE08E010F5D1F4FCA
:100EE000842E912CB12CA12CA50194010E948C0F71
:100EF000E62FB901CA01EA3044F5E05DD801EE936E
:100F00008D01232B242B252B79F790E080E010977F
:100F100069F0FD0101900020E9F73197AF014A1B0C
:100F20005B0BBD0188EC92E00E940F02A1960FB608
:100F3000F894DEBF0FBECDBFDF91CF911F910F910F
:100F4000BF90AF909F908F900895E95CD7CFCF92DC
:100F5000DF92EF92FF926C01990FEE08FF08F7FE07
:100F600016C041E06DE288EC92E00E94000766271F
:100F70007727CB016C197D098E099F094AE00E94F1
:100F800059070196FF90EF90DF90CF9008954AE0C7
:100F9000C701B601FF90EF90DF90CF900C945907F6
:100FA000009769F0FC0101900020E9F73197AF014B
:100FB000481B590BBC0188EC92E00C940F0290E0A6
:100FC00080E0089585ED8093BC008091940290911B
:100FD0009502A0919602B09197020796A11DB11DAE
:100FE00023E0B695A795979587952A95D1F72091F7
:100FF000BC0024FD03C01092920208954091940217
:10100000509195026091960270919702452B462B64
:10101000472B69F30097A105B10541F02AE22A9513
:10102000F1F700C00197A109B109E1CF80919302C6
:101030000C94A6021F920F920FB60F9211242F93B9
:101040003F938F939F93AF93BF9380913C02909176
:101050003D02A0913E02B0913F0230913B0223E05D
:10106000230F2D3758F50196A11DB11D20933B028A
:1010700080933C0290933D02A0933E02B0933F02C6
:101080008091400290914102A0914202B0914302AE
:101090000196A11DB11D8093400290934102A0933F
:1010A0004202B0934302BF91AF919F918F913F91C4
:1010B0002F910F900FBE0F901F90189526E8230FC9
:1010C0000296A11DB11DD2CF1F920F920FB60F92A3
:1010D00011242F933F934F935F936F937F938F933D
:1010E0009F93AF93BF93EF93FF93E0910201F09131
:1010F00003010995FF91EF91BF91AF919F918F915E
:101100007F916F915F914F913F912F910F900FBE03
:101110000F901F9018951F920F920FB60F921124E7
:101120002F933F934F935F936F937F938F939F93EF
:10113000AF93BF93EF93FF93E0910001F091010112
:101140000995FF91EF91BF91AF919F918F917F9101
:101150006F915F914F913F912F910F900FBE0F9024
:101160001F9018951F920F920FB60F9211242F9374
:101170003F934F935F936F937F938F939F93AF931F
:10118000BF93EF93FF9380911B0290911C02A0915B
:101190001D02B0911E02892B8A2B8B2BD1F19091CD
:1011A0001602E0911702F09118028081892780834E
:1011B00080911B0290911C02A0911D02B0911E0211
:1011C000181619061A061B069CF480911B029091B2
:1011D0001C02A0911D02B0911E020197A109B10944
:1011E00080931B0290931C02A0931D02B0931E02D9
:1011F000FF91EF91BF91AF919F918F917F916F91EF
:101200005F914F913F912F910F900FBE0F901F90C4
:101210001895809104010E94E301EACF1F920F927A
:101220000FB60F9211242F933F934F935F936F93B9
:101230007F938F939F93AF93BF93EF93FF9380918F
:10124000B900887F803609F44AC0F0F5883209F485
:10125000A7C018F5803109F49BC0B8F4882309F4BD
:10126000F9C0883009F494C0FF91EF91BF91AF911C
:101270009F918F917F916F915F914F913F912F91AE
:101280000F900FBE0F901F901895883109F488C0F9
:10129000803251F78093900214C0803409F49DC0CD
:1012A00040F48033B9F38833F9F68093900285ECEB
:1012B000B0C0803509F485C0883509F496C08834FB
:1012C00099F60E94E207D0CF883909F48CC038F52E
:1012D000883729F050F4883611F0803729F683E0FA
:1012E000809392021092150257C0883809F47BC08F
:1012F000803919F0803809F0B7CF8091150280321B
:1013000008F071C0E091150281E08E0F8093150204
:101310008091BB00F0E0EB50FE4F80833DC0803BEE
:1013200039F0E0F4803A09F479C0883A09F09CCFAA
:1013300084E0809392021092F4011092F301E09104
:101340004602F091470209958091F30181110FC087
:1013500081E08093F3011092D30109C0803C09F42D
:10136000A6CF883C09F4A3CF883B09F07DCFE0915C
:10137000F40181E08E0F8093F401F0E0ED52FE4F16
:1013800080818093BB009091F4018091F30129C08A
:1013900080916D028093BB0085EC8093BC0064CF8C
:1013A00090918F0280918E02981758F5E0918F02EC
:1013B00081E08E0F80938F02F0E0E259FD4F808133
:1013C000E9CFE0918F0281E08E0F80938F028091B0
:1013D000BB00F0E0E259FD4F808390918F02809135
:1013E0008E029817C8F285E8D8CFE0918F0281E08D
:1013F0008E0F80938F028091BB00F0E0E259FD4F89
:1014000080838091910281115CCF81E080936C0296
:1014100084EA8093BC001092920226CF85EC8093E0
:10142000BC001092920280911502803230F4E0915B
:101430001502F0E0EB50FE4F10826091150270E053
:10144000E0914402F091450285EF91E009951092F8
:1014500015020ACF1092900234CFECEBF2E0138227
:10146000128288EE93E0A0E0B0E084839583A683A7
:10147000B78387E191E091838083E8ECF2E0138207
:10148000128289E291E09183808387E2848380E104
:10149000818782E0828713860895CF93DF93CDB74B
:1014A000DEB768970FB6F894DEBF0FBECDBF789455
:1014B00084B5826084BD84B5816084BD85B5826059
:1014C00085BD85B5816085BD80916E00816080930A
:1014D0006E00109281008091810082608093810073
:1014E0008091810081608093810080918000816083
:1014F000809380008091B10084608093B1008091DE
:10150000B00081608093B00080917A008460809305
:101510007A0080917A00826080937A0080917A00CC
:10152000816080937A0080917A00806880937A004D
:101530001092C1000E94990088E991E09093010106
:1015400080930001809169008C7F826080936900A4
:10155000E89A8DEB91E090930301809302018091D2
:101560006900837F886080936900E99A0E948F02F6
:101570001092CD028091D202823018F098E09093C0
:10158000CD028093D00262E370E080E090E00E94A0
:101590005A016091D30288EC92E00E94800468EEC8
:1015A00073E080E090E00E945A0160E388EC92E0F2
:1015B0000E94E7060BE416E4C8010197F1F760E327
:1015C00088EC92E00E94E706C8010197F1F760E31A
:1015D00088EC92E00E94E70683E592E00197F1F73C
:1015E00060E288EC92E00E94E7066091CD026062C2
:1015F00040E088EC92E00E94000784E08093CE02F5
:1016000040E06CE088EC92E00E9400070E9417071F
:1016100082E08093CF0240E066E088EC92E00E9496
:10162000000740E062E088EC92E00E9400078BE354
:101630009FE10197F1F788E08093D30260E088ECA6
:1016400092E00E94800480E00E94220785E491E0FD
:101650000E94D00781E00E94220784E591E00E9469
:10166000D00780916A0290916B02009711F00E945E
:10167000641086E090E00E94C80F8C0188E6F801B3
:1016800080838CEB92E092838183138280E290E0EE
:101690009583848310936B0200936A020E948F02E9
:1016A00081E0F8018383C8010E94D503811104C041
:1016B00083E691E00E94D007188E80916A02909193
:1016C0006B02FC0124813581232B91F0208131E0D4
:1016D000309398022093BA02109299021092BB02A2
:1016E00021E041E050E0BE01685E7F4F0E94B703F9
:1016F00041E050E0BE016F5F7F4F80916A029091A0
:101700006B020E941905898190E0880F892F881F3C
:10171000990B892B09F461C00E94170782E791E0B9
:101720000E94D0074BE050E061E770E0CE010196E7
:101730000E94630FCE010A960E943D028C87E981C8
:10174000E154E33120F50E2E000CFF0BE655F44F6B
:101750000C94AE0FC80CC70BC70BDC0CC70BC60C28
:10176000C70BC70BC70BBD0BC70BC70BCF0CDA0CD6
:10177000D80CC70BC70BC70BD60C8A81813609F46E
:1017800001C18B818E3609F4FFC087E08D87CE01C1
:1017900005960E943D028E8748E050E068E670E0C2
:1017A000CE0101960E94630FCE0101960E943D0278
:1017B0008F87CE0104960E943D02888BCE0107964A
:1017C0000E943D02898BCE010C960E94970460ED29
:1017D00077E080E090E00E945A010E94170758E1EC
:1017E000A52EB12C44244A94542C32013FE3232EDD
:1017F0003FE1332E4DE7842E40E0942ECE014296F9
:101800000E943E060E948C0100913702109138021E
:101810002091390230913A02601B710B820B930BBD
:10182000653F71408105910508F473C00E948C01E9
:1018300060933702709338028093390290933A0292
:10184000FD880E891F8980E00E94220729E02F155C
:1018500020F080E891E00E94D0076F2D70E090E0CA
:1018600080E04AE00E9459078FE991E00E94D0078A
:101870000A3020F480E891E00E94D007602F70E0E9
:1018800090E080E04AE00E9459078FE991E00E94D1
:10189000D0071A3020F480E891E00E94D007612F31
:1018A00070E090E080E04AE00E94590781E00E94E9
:1018B000220782E891E00E94D00780912B0290914C
:1018C0002C020A9724F480E891E00E94D0078091CE
:1018D0002B0290912C020E94A7078FE991E00E94B1
:1018E000D0078091290290912A020A9724F480E877
:1018F00091E00E94D0078091290290912A020E94D3
:10190000A70780913102811159C080E491E00E94C3
:10191000D007809131028823B1F02D8980912B026C
:1019200090912C022817190671F42E8980912902B2
:1019300090912A022817190631F48F89811103C06A
:1019400081E08093270280912702882309F4C4C094
:10195000809104018630A9F5F401149117FDABC004
:101960000E949900112309F45CC0123009F414C1DB
:10197000113009F489C0123009F425C111119BC03E
:101980008FE354C081E002CF86E000CF82E0FECE3C
:101990008B81823711F088E0F9CE84E0F7CE8B811D
:1019A000823711F085E0F2CE83E0F0CE89E0EECE12
:1019B0008AE0ECCE8BE0EACE8CE0E8CE86E391E0E4
:1019C000A6CF8F3F09F077C086E080930401F40131
:1019D00014911F3F09F46FC0113009F436C040F074
:1019E000123009F4B6C017FD66C00E949900BDCF41
:1019F00014BC15BC84B5826084BD85B5816085BD8D
:101A0000E6EBF0E0E491F0E0EE0FFF1FE456FF4F4D
:101A100085919491EAECF0E0E491E0931A020E943F
:101A2000990085B5887F836085BD8CE787BD40922E
:101A30002302509224026092250270922602809125
:101A40006E00826080936E0036C01092800010920B
:101A50008100809181008860809381008091810065
:101A6000816080938100E6EBF0E0E491F0E0EE0F1E
:101A7000FF1FE456FF4F85919491EAECF0E0E4916A
:101A8000E09319020E94990080918100887F816013
:101A900080938100309289002092880040921F023A
:101AA00050922002609221027092220280916F0077
:101AB000826080936F0080912802811104C0809120
:101AC0003602882349F010922802109236021092B2
:101AD000270286E00E94E30180913602882309F400
:101AE00095C0109236020E948C016B017C01C0925D
:101AF0003202D0923302E0923402F092350282E058
:101B00000E94DE00892BD9F30E948C016C197D099B
:101B10008E099F09613D77408105910508F455C004
:101B20001091310281E01827109331020E941707AB
:101B30008BE391E0112311F081E391E00E94D00743
:101B400068EE73E080E090E00E945A010E9417075F
:101B50005DC01092B0001092B1008091B000826020
:101B60008093B0008091B10081608093B100E6EB7A
:101B7000F0E0E491F0E0EE0FFF1FE456FF4F859197
:101B800094919093180280931702EAECF0E0E491AC
:101B9000E09316020E9499008091B100887F8360D3
:101BA0008093B10089EF8093B30040921B02509262
:101BB0001C0260921D0270921E0280917000826071
:101BC0008093700078CF8FE3EECF0E948C016C1968
:101BD0007D098E099F09603D774081059105B0F42C
:101BE00080912F0290913002019683309105B4F4D8
:101BF0009093300280932F0280912F0290913002B7
:101C00008130910581F0029709F4BCC080E090E03A
:101C1000892B09F4F3CD0E940000E8CD1092300228
:101C200010922F02E9CF0E94170786E891E00E94E8
:101C3000D00768EE73E080E090E00E945A010E94B5
:101C4000170710922E0210922D0280E00E942207A8
:101C500085E991E00E94D00780912B0290912C029F
:101C60000A9724F480E891E00E94D00780912B022B
:101C700090912C020E94A70781E00E9422078BE925
:101C800091E00E94D0078091290290912A020A9740
:101C900024F480E891E00E94D0078091290290917D
:101CA0002A020E94A70784E00E94DE00892BC9F463
:101CB00080912D0290912E02892B09F047C08091CE
:101CC0002B0290912C020196B5010E94780F9093FF
:101CD0002C0280932B0268EC70E080E090E00E9480
:101CE0005A0185E00E94DE00892BC1F480912D020B
:101CF00090912E02892BC1F580912B0290912C029C
:101D00004796B5010E94780F90932C0280932B0286
:101D100068EC70E080E090E00E945A018091280217
:101D2000882309F492CF1092280280912D0290917D
:101D30002E02019690932E0280932D0202970CF4AE
:101D400084CF0E94170781EA91E0F8CE80912902A2
:101D500090912A0201966CE370E00E94780F9093B4
:101D60002A0280932902B7CF8091290290912A02FA
:101D7000CB966CE370E00E94780F90932A028093D8
:101D80002902C6CF0E9417078EEA91E00E94D00771
:101D900068EE73E080E090E00E945A010E9417070D
:101DA000CE010C960E943E06EF84F12C088910E0CB
:101DB00010922E0210922D0280E00E94220785E9E7
:101DC00091E00E94D0078AE0E816F10424F480E84C
:101DD00091E00E94D007C7010E94A70781E00E94FE
:101DE00022078BE991E00E94D0070A30110524F404
:101DF00080E891E00E94D007C8010E94A70784E014
:101E00000E94DE00892B99F480912D0290912E0280
:101E1000892B09F048C0C7010196B5010E94780FCF
:101E20007C0168EC70E080E090E00E945A0185E05F
:101E30000E94DE00892B91F480912D0290912E0258
:101E4000892BC9F5C7014796B5010E94780F7C011F
:101E500068EC70E080E090E00E945A0180912802D6
:101E6000882309F4A9CF1092280280912D02909125
:101E70002E02019690932E0280932D0202970CF46D
:101E80009BCF8E859D852C8529839A838B83EC82BD
:101E90000D831E82CE0101960E9497040E941707AF
:101EA0008BEB91E04BCEC80101966CE370E00E9491
:101EB000780F8C01B6CFC801CB966CE370E00E941E
:101EC000780F8C01C5CFFB01DC0102C005900D929B
:101ED00041505040D8F70895991B79E004C0991FEC
:101EE000961708F0961B881F7A95C9F78095089574
:101EF00097FB072E16F4009407D077FD09D00E94B7
:101F0000B40F07FC05D03EF4909581959F4F08953E
:101F1000709561957F4F0895A1E21A2EAA1BBB1BF5
:101F2000FD010DC0AA1FBB1FEE1FFF1FA217B307A5
:101F3000E407F50720F0A21BB30BE40BF50B661FBB
:101F4000771F881F991F1A9469F76095709580957F
:101F500090959B01AC01BD01CF010895EE0FFF1FCD
:101F60000590F491E02D0994AA1BBB1B51E107C019
:101F7000AA1FBB1FA617B70710F0A61BB70B881F19
:101F8000991F5A95A9F780959095BC01CD010895A8
:101F90000F931F93CF93DF938230910510F482E06B
:101FA00090E0E091D602F091D70230E020E0B0E07E
:101FB000A0E0309799F42115310509F44AC0281B97
:101FC000390B24303105D8F58A819B816115710563
:101FD00089F1FB0193838283FE0111C0408151810D
:101FE0000281138148175907E0F04817590799F4FF
:101FF000109761F012960C93129713961C933296D9
:10200000CF01DF91CF911F910F9108950093D602D8
:102010001093D702F4CF2115310551F04217530721
:1020200038F0A901DB019A01BD01DF01F801C1CF40
:10203000EF01F9CF9093D7028093D602CDCFFE0166
:10204000E20FF31F81939193225031093983288342
:10205000D7CF2091D4023091D502232B41F4209187
:102060000701309108013093D5022093D4022091CA
:102070000501309106012115310541F42DB73EB718
:102080004091090150910A01241B350BE091D402C3
:10209000F091D502E217F307A0F42E1B3F0B28178F
:1020A000390778F0AC014E5F5F4F2417350748F0D1
:1020B0004E0F5F1F5093D5024093D40281939193AA
:1020C0009FCFF0E0E0E09CCFCF93DF930097E9F063
:1020D000FC01329713821282A091D602B091D702EE
:1020E000ED0130E020E01097A1F420813181820FD2
:1020F000931F2091D4023091D5022817390709F097
:1021000061C0F093D502E093D402DF91CF9108959E
:10211000EA01CE17DF07E8F54A815B819E01411590
:102120005105B1F7E901FB83EA8349915991C40F45
:10213000D51FEC17FD0761F4808191810296840F11
:10214000951FE90199838883828193819B838A8388
:10215000F0E0E0E012968D919C9113970097B9F50D
:102160002D913C911197CD010296820F931F2091E2
:10217000D4023091D5022817390739F6309751F536
:102180001092D7021092D602B093D502A093D40237
:10219000BCCFD383C28340815181840F951FC81760
:1021A000D90761F44E5F5F4F88819981480F591FAD
:1021B000518340838A819B819383828321153105DA
:1021C00009F0B0CFF093D702E093D6029ECFFD0185
:0E21D000DC01C0CF13821282D7CFF894FFCF6C
:1021DE00E201E201FF0000D802800000004000147E
:1021EE0000540000000000510424049404FA031D5E
:1021FE00040A04FB030000000053070F0294043C82
:10220E0002416C61726D204F4E2000416C61726D07
:10221E00204F4646004C696E6520312074657374FC
:10222E00204F4B004C696E6520322074657374200C
:10223E004F4B00525443206E6F7420666F756E6460
:10224E0021005254432061646A7573742E2E2E0041
:10225E003000414C3A0053657420416C61726D2020
:10226E0054696D6500486F75723A004D696E203A7B
:10227E0000416C61726D2053617665642100536577
:10228E0074205254432054696D650054696D652065
:0A229E00557064617465642100004E
:00000001FF
