:100000000C9462000C948A000C948A000C948A0070
:100010000C948A000C948A000C948A000C948A0038
:100020000C948A000C948A000C948A000C948A0028
:100030000C948A000C948A000C948A000C948A0018
:100040000C949B020C948A000C940B030C94E50214
:100050000C948A000C948A000C948A000C948A00F8
:100060000C948A000C948A000000000024002700F1
:100070002A000000000023002600290000000000E4
:10008000250028002B0004040404040404040202D4
:100090000202020203030303030301020408102007
:1000A0004080010204081020010204081020000012
:1000B0000008000201000003040700000000000027
:1000C0000000800511241FBECFEFD8E0DEBFCDBFFA
:1000D00011E0A0E0B1E0EEEAFBE002C005900D9275
:1000E000A63BB107D9F722E0A6EBB1E001C01D9213
:1000F000A836B207E1F710E0C2E6D0E004C02197CD
:10010000FE010E94CF05C136D107C9F70E943D0309
:100110000C94D5050C940000833081F028F48130D4
:1001200099F08230A9F008958730A9F08830C9F09D
:100130008430B1F4809180008F7D03C08091800075
:100140008F7780938000089584B58F7784BD08955C
:1001500084B58F7DFBCF8091B0008F778093B00006
:1001600008958091B0008F7DF9CF1F93CF93DF93D7
:10017000282F30E0F901E255FF4F8491F901E6564E
:10018000FF4FD491F901EA57FF4FC491CC23A9F056
:10019000162F81110E948C00EC2FF0E0EE0FFF1F54
:1001A000E458FF4FA591B4918FB7F894EC911111D9
:1001B00008C0D095DE23DC938FBFDF91CF911F91D4
:1001C0000895DE2BF8CF3FB7F8948091C701909146
:1001D000C801A091C901B091CA0126B5A89B05C06C
:1001E0002F3F19F00196A11DB11D3FBFBA2FA92FB6
:1001F000982F8827BC01CD01620F711D811D911DB3
:1002000042E0660F771F881F991F4A95D1F708951E
:100210008F929F92AF92BF92CF92DF92EF92FF9216
:100220006B017C010E94E3004B015C01C114D1040D
:10023000E104F104B9F00E94E300681979098A0920
:100240009B09683E73408105910580F321E0C21A45
:10025000D108E108F10888EE880E83E0981EA11C01
:10026000B11CE4CFFF90EF90DF90CF90BF90AF90A4
:100270009F908F900895CF92DF92EF92FF920F930D
:100280001F93CF93DF938C01D0E0C0E06B01770F19
:10029000EE08FF0861E08DE00E94B500C701B601DD
:1002A0000E94080160E08DE00E94B500C701B60120
:1002B0000E94080121960C171D0761F7DF91CF916D
:1002C0001F910F91FF90EF90DF90CF9008952FB77F
:1002D000F8946091C3017091C4018091C50190911F
:1002E000C6012FBF0895AF92BF92CF92DF92EF92D7
:1002F000FF920F931F93CF93DF936C017B018B01D0
:10030000040F151FEB015E01AE18BF08C017D1071F
:1003100059F06991D601ED91FC910190F081E02DA9
:10032000C6010995892B79F7C501DF91CF911F91FE
:100330000F91FF90EF90DF90CF90BF90AF90089516
:10034000FC01538D448D252F30E0842F90E0821BDB
:10035000930B541710F0CF96089501970895FC0160
:10036000918D828D981761F0A28DAE0FBF2FB11DB8
:100370005D968C91928D9F5F9F73928F90E0089510
:100380008FEF9FEF0895FC01918D828D981731F0CA
:10039000828DE80FF11D858D90E008958FEF9FEF1E
:1003A0000895FC01918D228D892F90E0805C9F4FF4
:1003B000821B91098F73992708958BEC91E00E941D
:1003C000D10121E0892B09F420E0822F089580E0FB
:1003D00090E0892B29F00E94DD0181110C9400002E
:1003E0000895FC01A48DA80FB92FB11DA35ABF4FCA
:1003F0002C91848D90E001968F739927848FA68924
:10040000B7892C93A089B1898C91837080648C9377
:10041000938D848D981306C00288F389E02D808126
:100420008F7D80830895EF92FF920F931F93CF9358
:10043000DF93EC0181E0888F9B8D8C8D98131AC01F
:10044000E889F989808185FF15C09FB7F894EE8906
:10045000FF896083E889F989808183708064808363
:100460009FBF81E090E0DF91CF911F910F91FF90AE
:10047000EF900895F62E0B8D10E00F5F1F4F0F7356
:100480001127E02E8C8D8E110CC00FB607FCFACF11
:10049000E889F989808185FFF5CFCE010E94F101BD
:1004A000F1CFEB8DEC0FFD2FF11DE35AFF4FF082E2
:1004B0009FB7F8940B8FEA89FB8980818062CFCF48
:1004C000CF93DF93EC01888D8823B9F0AA89BB898B
:1004D000E889F9898C9185FD03C0808186FD0DC076
:1004E0000FB607FCF7CF8C9185FFF2CF808185FF97
:1004F000EDCFCE010E94F101E9CFDF91CF910895B8
:10050000FC0101900020E9F73197AF01481B590B1E
:10051000BC018BEC91E00C947301CF93DF930E94AC
:100520008002EC0184E191E00E9480028C0F9D1F0B
:10053000DF91CF9108951F920F920FB60F92112461
:100540002F933F938F939F93AF93BF938091C3015A
:100550009091C401A091C501B091C6013091C20132
:1005600023E0230F2D3758F50196A11DB11D2093CF
:10057000C2018093C3019093C401A093C501B093BD
:10058000C6018091C7019091C801A091C901B091A5
:10059000CA010196A11DB11D8093C7019093C801A6
:1005A000A093C901B093CA01BF91AF919F918F9160
:1005B0003F912F910F900FBE0F901F90189526E836
:1005C000230F0296A11DB11DD2CF1F920F920FB61D
:1005D0000F9211242F933F934F935F936F937F93C9
:1005E0008F939F93AF93BF93EF93FF938BEC91E027
:1005F0000E94F101FF91EF91BF91AF919F918F9177
:100600007F916F915F914F913F912F910F900FBE0E
:100610000F901F9018951F920F920FB60F921124F2
:100620002F938F939F93EF93FF93E091DB01F091D2
:10063000DC018081E091E101F091E20182FD1BC0CB
:1006400090818091E4018F5F8F732091E501821783
:1006500041F0E091E401F0E0E553FE4F958F809387
:10066000E401FF91EF919F918F912F910F900FBE19
:100670000F901F9018958081F4CFCF93DF93CDB763
:10068000DEB7A1970FB6F894DEBF0FBECDBF78944A
:1006900084B5826084BD84B5816084BD85B5826087
:1006A00085BD85B5816085BD80916E008160809338
:1006B0006E001092810080918100826080938100A1
:1006C00080918100816080938100809180008160B1
:1006D000809380008091B10084608093B10080910C
:1006E000B00081608093B00080917A008460809334
:1006F0007A0080917A00826080937A0080917A00FB
:10070000816080937A0080917A00806880937A007B
:100710001092C100ECE9F0E02491A8E82A2EA0E0B4
:100720003A2EF10184918823C9F090E0880F991F37
:10073000FC01E859FF4FA591B491FC01E458FF4F2B
:10074000459154919FB7F8943C91822F80958323D3
:100750008C93FA018081282B20839FBFE7EAF0E089
:100760002491E3E9F0E08491882399F090E0880FE8
:10077000991FFC01E859FF4FA591B491FC01E45881
:10078000FF4F859194918FB7F894EC91E22BEC9305
:100790008FBFC0900001D09001010D2C000CEE081D
:1007A000FF0860E079E08DE390E0A70196010E94E8
:1007B000AD052150310941095109569547953795A5
:1007C0002795E091DB01F091DC0182E08083211527
:1007D000F0E13F07A8F0E091DB01F091DC0110822D
:1007E00060E874E88EE190E0A70196010E94AD05F3
:1007F000215031094109510956954795379527955B
:10080000E091D701F091D8013083E091D901F091C6
:10081000DA0120831092E301E091DF01F091E00121
:1008200086E08083E091DD01F091DE0180818061CE
:100830008083E091DD01F091DE018081886080831A
:10084000E091DD01F091DE01808180688083E0919C
:10085000DD01F091DE0180818F7D808387E191E071
:100860000E948D029AE0892E912CA12CB12CE12CB2
:1008700022ECF22E30E8C32E35E2D32EE0EBF0E08E
:100880008491ECE9F0E00491F1011491111120C080
:100890006090C101662059F00E9467016093BD011C
:1008A0007093BE018093BF019093C001612C809131
:1008B000BC018111D3C06092C10180E090E0892B1E
:1008C000E9F20E94DD018823C9F20E940000D6CF20
:1008D00081110E948C00E12FF0E0EE0FFF1FEE5817
:1008E000FF4FA591B4918C916090C101082381F2D2
:1008F0006110DDCF6090BC010E9467010091BD01D5
:100900001091BE012091BF013091C001601B710B9D
:10091000820B930B693B7B408105910508F46FC006
:1009200021E062266092BC011092BB011092BA01D4
:10093000662059F087E291E00E948D0264E670E043
:1009400086E090E00E943B01B2CF8BE391E00E94F1
:1009500080024090000150900101052C000C6608B7
:10096000770877FE36C06DE28BEC91E00E941302AF
:1009700022273327A901241935094609570919A245
:100980008E010F5D1F4FCA01B901A50194010E949C
:10099000AD05605DF80162938F01211531054105B8
:1009A000510589F70115110519F0C8010E9480024F
:1009B00084E191E00E94800286E591E00E948D0230
:1009C00064E670E086E090E00E943B016624639458
:1009D0006ECFA301920119A28E010F5D1F4FCA01B4
:1009E000B901A50194010E94AD05605DF801629313
:1009F0008F01211531054105510589F7D3CF6620B7
:100A000051F10E9467010091B6011091B701209148
:100A1000B8013091B901601B710B820B930B683EDA
:100A2000734081059105A0F48091BA019091BB01BA
:100A300001969093BB018093BA010E946701609375
:100A4000B6017093B7018093B8019093B9012FCF8D
:100A500081E090E0EECF662463942DCF0091BA013F
:100A60001091BB01101611060CF025CF0E946701F2
:100A70002091B6013091B7014091B8015091B90170
:100A8000621B730B840B950B693E734081059105C6
:100A900008F411CF0130110519F5809100019091F2
:100AA00001018038954299F0D0920101C092000175
:100AB0006CE271E081E090E00E943B018EE691E003
:100AC0000E948D021092BB011092BA01F4CE6CE22A
:100AD00071E081E090E00E943B0189E891E0F0CF75
:100AE0000230110579F7F0920101E09200016CE209
:100AF00071E082E090E00E943B018BE991E0E0CF61
:100B0000EBECF1E01382128288EE93E0A0E0B0E01B
:100B100084839583A683B78386E091E09183808365
:100B200085EC90E09587848784EC90E097878687B2
:100B300080EC90E0918B808B81EC90E0938B828BAA
:100B400082EC90E0958B848B86EC90E0978B868B83
:100B5000118E128E138E148E0895A1E21A2EAA1BE6
:100B6000BB1BFD010DC0AA1FBB1FEE1FFF1FA2175D
:100B7000B307E407F50720F0A21BB30BE40BF50B5A
:100B8000661F771F881F991F1A9469F760957095E3
:100B9000809590959B01AC01BD01CF010895EE0FAA
:0E0BA000FF1F0590F491E02D0994F894FFCF0B
:100BAE0080250000000013027301A0016002D10134
:100BBE00AF01C3010D0A0043686520646F207661A2
:100BCE006E2068616E680056616F206368652064F0
:100BDE006F206361752068696E68004261756420DC
:100BEE00726174652064756F632061702064756E28
:100BFE0067206C613A0054726F206C6169206368E3
:100C0E006520646F2076616E2068616E68004261B7
:100C1E00756420726174653A20313135323030207E
:100C2E002D2D3E20393630300042617564207261C0
:100C3E007465206C61203936303000426175642055
:100C4E00726174653A2039363030202D2D3E2031B8
:060C5E0031353230300098
:00000001FF
