:100000000C9462000C948A000C948A000C948A0070
:100010000C948A000C948A000C948A000C948A0038
:100020000C948A000C948A000C948A000C948A0028
:100030000C948A000C948A000C948A000C948A0018
:100040000C9422030C948A000C9492030C946C037D
:100050000C948A000C948A000C948A000C948A00F8
:100060000C948A000C948A000000000024002700F1
:100070002A000000000023002600290000000000E4
:10008000250028002B0004040404040404040202D4
:100090000202020203030303030301020408102007
:1000A0004080010204081020010204081020000012
:1000B0000008000201000003040700000000000027
:1000C00000004E0511241FBECFEFD8E0DEBFCDBF2C
:1000D00011E0A0E0B1E0EAE4FBE002C005900D927F
:1000E000A039B107D9F722E0A0E9B1E001C01D9223
:1000F000A234B207E1F710E0C2E6D0E004C02197D5
:10010000FE010E949D05C136D107C9F70E94C403B4
:100110000C94A3050C940000CF92DF92EF92FF9213
:100120006B017C0160E079E08DE390E0A70196012E
:100130000E947B0521503109410951095695479587
:1001400037952795E091B501F091B60182E0808363
:10015000211580E13807A8F0E091B501F091B601D2
:10016000108260E874E88EE190E0A70196010E9499
:100170007B0521503109410951095695479537951D
:100180002795E091B101F091B2013083E091B30184
:10019000F091B40120831092BD01E091B901F0917A
:1001A000BA0186E08083E091B701F091B8018081C7
:1001B00080618083E091B701F091B801808188600F
:1001C0008083E091B701F091B801808180688083DD
:1001D000E091B701F091B80180818F7D8083FF901D
:1001E000EF90DF90CF900895833081F028F4813034
:1001F00099F08230A9F008958730A9F08830C9F0CD
:100200008430B1F4809180008F7D03C080918000A4
:100210008F7780938000089584B58F7784BD08958B
:1002200084B58F7DFBCF8091B0008F778093B00035
:1002300008958091B0008F7DF9CF1F93CF93DF9306
:10024000282F30E0F901E255FF4F8491F901E6567D
:10025000FF4FD491F901EA57FF4FC491CC23A9F085
:10026000162F81110E94F400EC2FF0E0EE0FFF1F1B
:10027000E458FF4FA591B4918FB7F894EC91111108
:1002800008C0D095DE23DC938FBFDF91CF911F9103
:100290000895DE2BF8CF3FB7F8948091A10190919B
:1002A000A201A091A301B091A40126B5A89B05C00D
:1002B0002F3F19F00196A11DB11D3FBFBA2FA92FE5
:1002C000982F8827BC01CD01620F711D811D911DE2
:1002D00042E0660F771F881F991F4A95D1F708954E
:1002E0008F929F92AF92BF92CF92DF92EF92FF9246
:1002F0006B017C010E944B014B015C01C114D104D4
:10030000E104F104B9F00E944B01681979098A09E6
:100310009B09683E73408105910580F321E0C21A74
:10032000D108E108F10888EE880E83E0981EA11C30
:10033000B11CE4CFFF90EF90DF90CF90BF90AF90D3
:100340009F908F900895CF92DF92EF92FF920F933C
:100350001F93CF93DF938C01D0E0C0E06B01770F48
:10036000EE08FF0861E08DE00E941D01C701B601A3
:100370000E94700160E08DE00E941D01C701B6017E
:100380000E94700121960C171D0761F7DF91CF9134
:100390001F910F91FF90EF90DF90CF9008952FB7AE
:1003A000F89460919D0170919E0180919F019091C0
:1003B000A0012FBF0895AF92BF92CF92DF92EF922C
:1003C000FF920F931F93CF93DF936C017B018B01FF
:1003D000040F151FEB015E01AE18BF08C017D1074F
:1003E00059F06991D601ED91FC910190F081E02DD9
:1003F000C6010995892B79F7C501DF91CF911F912E
:100400000F91FF90EF90DF90CF90BF90AF90089545
:10041000FC01538D448D252F30E0842F90E0821B0A
:10042000930B541710F0CF96089501970895FC018F
:10043000918D828D981761F0A28DAE0FBF2FB11DE7
:100440005D968C91928D9F5F9F73928F90E008953F
:100450008FEF9FEF0895FC01918D828D981731F0F9
:10046000828DE80FF11D858D90E008958FEF9FEF4D
:100470000895FC01918D228D892F90E0805C9F4F23
:10048000821B91098F739927089585EA91E00E9454
:10049000390221E0892B09F420E0822F089580E0C1
:1004A00090E0892B29F00E94450281110C940000F4
:1004B0000895FC01A48DA80FB92FB11DA35ABF4FF9
:1004C0002C91848D90E001968F739927848FA68953
:1004D000B7892C93A089B1898C91837080648C93A7
:1004E000938D848D981306C00288F389E02D808156
:1004F0008F7D80830895EF92FF920F931F93CF9388
:10050000DF93EC0181E0888F9B8D8C8D98131AC04E
:10051000E889F989808185FF15C09FB7F894EE8935
:10052000FF896083E889F989808183708064808392
:100530009FBF81E090E0DF91CF911F910F91FF90DD
:10054000EF900895F62E0B8D10E00F5F1F4F0F7385
:100550001127E02E8C8D8E110CC00FB607FCFACF40
:10056000E889F989808185FFF5CFCE010E94590283
:10057000F1CFEB8DEC0FFD2FF11DE35AFF4FF08211
:100580009FB7F8940B8FEA89FB8980818062CFCF77
:10059000CF93DF93EC01888D8823B9F0AA89BB89BA
:1005A000E889F9898C9185FD03C0808186FD0DC0A5
:1005B0000FB607FCF7CF8C9185FFF2CF808185FFC6
:1005C000EDCFCE010E945902E9CFDF91CF9108957E
:1005D00085EA91E00E94C802E5EAF1E0A289B389C8
:1005E0008C918F7E8C93A289B3898C91877F8C9319
:1005F000A289B3898C918F778C93A289B3898C91CE
:100600008F7D8C93828D818F0895CF93DF93FC0132
:1006100001900020E9F73197AF01481B590BBC014D
:1006200085EA91E00E94DB01EC0142E050E064E1E8
:1006300071E085EA91E00E94DB018C0F9D1FDF9144
:10064000CF9108951F920F920FB60F9211242F93FE
:100650003F938F939F93AF93BF9380919D01909110
:100660009E01A0919F01B091A00130919C0123E0D7
:10067000230F2D3758F50196A11DB11D20939C0124
:1006800080939D0190939E01A0939F01B093A00140
:100690008091A1019091A201A091A301B091A40128
:1006A0000196A11DB11D8093A1019093A201A09379
:1006B000A301B093A401BF91AF919F918F913F91FE
:1006C0002F910F900FBE0F901F90189526E8230FC3
:1006D0000296A11DB11DD2CF1F920F920FB60F929D
:1006E00011242F933F934F935F936F937F938F9337
:1006F0009F93AF93BF93EF93FF9385EA91E00E949E
:100700005902FF91EF91BF91AF919F918F917F918E
:100710006F915F914F913F912F910F900FBE0F906E
:100720001F9018951F920F920FB60F9211242F93BE
:100730008F939F93EF93FF93E091B501F091B601F2
:100740008081E091BB01F091BC0182FD1BC09081D2
:100750008091BE018F5F8F732091BF01821741F09E
:10076000E091BE01F0E0EB55FE4F958F8093BE0106
:10077000FF91EF919F918F912F910F900FBE0F904E
:100780001F9018958081F4CF789484B5826084BDE1
:1007900084B5816084BD85B5826085BD85B5816085
:1007A00085BD80916E00816080936E001092810003
:1007B00080918100826080938100809181008160BE
:1007C000809381008091800081608093800080917F
:1007D000B10084608093B1008091B000816080930B
:1007E000B00080917A00846080937A0080917A00D2
:1007F000826080937A0080917A00816080937A0091
:1008000080917A00806880937A001092C1000CE990
:1008100010E0F801249178E8E72E70E0F72EF70158
:1008200084918823C1F090E0880F991FFC01E8595A
:10083000FF4FA591B491FC01E458FF4FC591D491AD
:100840009FB7F8943C91822F809583238C93888165
:10085000282B28839FBFE7EAF0E02491E3E9F0E04A
:100860008491882399F090E0880F991FFC01E85942
:10087000FF4FA591B491FC01E458FF4F85919491ED
:100880008FB7F894EC91E22BEC938FBF609100014D
:1008900070910101072E000C880B990B0E948C00AF
:1008A00087E191E00E94050390EB692E90E0792E9C
:1008B0004424439420E0C22E20E0D22EA12C32EC1E
:1008C000B32E40E8842E45E2942EF3018491F80182
:1008D000C491F701D491D1111FC050909B015520B4
:1008E00059F00E94CF016093970170939801809313
:1008F000990190939A01512C8091960181117DC0AC
:1009000050929B01C114D10401F30E944502882337
:10091000E1F20E940000D9CF81110E94F400ED2F76
:10092000F0E0EE0FFF1FEE58FF4FA591B4918C91B0
:1009300050909B01C82389F25110DECF5090960150
:100940000E94CF0120919701309198014091990127
:1009500050919A01621B730B840B950B693B7B4092
:1009600081059105D8F0542450929601552059F0F4
:1009700085E391E00E94050364E670E086E090E084
:100980000E94A301B9CF89E491E00E94050360E0D1
:100990008DE00E941D0155245394AECF552051F196
:1009A0000E94CF01209192013091930140919401D6
:1009B00050919501621B730B840B950B683E73403D
:1009C00081059105A0F4809190019091910101968B
:1009D00090939101809390010E94CF0160939201C6
:1009E00070939301809394019093950185CF81E05A
:1009F00090E0EECF5524539483CFC0919001D091D5
:100A000091011C161D060CF07BCF0E94CF01209196
:100A10009201309193014091940150919501621B94
:100A2000730B840B950B693E73408105910508F4A7
:100A300067CFC130D105D9F49092010180920001B5
:100A40006CE271E081E090E00E94A3010E94E80264
:100A500060E875E280E090E00E948C0081E691E021
:100A60000E940503109291011092900149CF2297A4
:100A7000C9F7B0920101A09200016CE271E082E03E
:100A800090E00E94A3010E94E80260E072EC8FEF08
:100A90009FEF0E948C0087E791E0E2CFE5EAF1E06A
:100AA0001382128288EE93E0A0E0B0E08483958305
:100AB000A683B78386E091E09183808385EC90E004
:100AC0009587848784EC90E09787868780EC90E018
:100AD000918B808B81EC90E0938B828B82EC90E009
:100AE000958B848B86EC90E0978B868B118E128E83
:100AF000138E148E0895A1E21A2EAA1BBB1BFD01B2
:100B00000DC0AA1FBB1FEE1FFF1FA217B307E407EC
:100B1000F50720F0A21BB30BE40BF50B661F771F44
:100B2000881F991F1A9469F7609570958095909524
:100B30009B01AC01BD01CF010895EE0FFF1F059091
:0A0B4000F491E02D0994F894FFCF22
:100B4A008025000000007B02DB010802C80239028E
:100B5A0017022B020D0A0053797374656D207374A2
:100B6A00617274656420696E206E6F726D616C20AB
:100B7A006D6F646500456E746572656420434F4EFF
:100B8A00464947206D6F64650052657475726E65DB
:100B9A006420746F204E4F524D414C206D6F646536
:100BAA0000426175642072617465207365742074F3
:100BBA006F20393630300042617564207261746585
:100BCA002073657420746F20313135323030000063
:00000001FF
